{
  "contractName": "Hodl",
  "abi": [
    {
      "constant": true,
      "inputs": [
        {
          "name": "",
          "type": "address"
        }
      ],
      "name": "depositTime",
      "outputs": [
        {
          "name": "",
          "type": "uint256"
        }
      ],
      "payable": false,
      "stateMutability": "view",
      "type": "function"
    },
    {
      "constant": true,
      "inputs": [
        {
          "name": "",
          "type": "address"
        }
      ],
      "name": "storedAmounts",
      "outputs": [
        {
          "name": "",
          "type": "uint256"
        }
      ],
      "payable": false,
      "stateMutability": "view",
      "type": "function"
    },
    {
      "constant": true,
      "inputs": [
        {
          "name": "",
          "type": "address"
        }
      ],
      "name": "rewardClaimTime",
      "outputs": [
        {
          "name": "",
          "type": "uint256"
        }
      ],
      "payable": false,
      "stateMutability": "view",
      "type": "function"
    },
    {
      "inputs": [],
      "payable": false,
      "stateMutability": "nonpayable",
      "type": "constructor"
    },
    {
      "payable": true,
      "stateMutability": "payable",
      "type": "fallback"
    },
    {
      "anonymous": false,
      "inputs": [
        {
          "indexed": false,
          "name": "amount",
          "type": "uint256"
        }
      ],
      "name": "Withdrawal",
      "type": "event"
    },
    {
      "anonymous": false,
      "inputs": [
        {
          "indexed": false,
          "name": "time",
          "type": "uint256"
        },
        {
          "indexed": false,
          "name": "time2",
          "type": "uint256"
        }
      ],
      "name": "timeCheck",
      "type": "event"
    },
    {
      "constant": false,
      "inputs": [
        {
          "name": "amount",
          "type": "uint256"
        }
      ],
      "name": "depositEther",
      "outputs": [],
      "payable": false,
      "stateMutability": "nonpayable",
      "type": "function"
    },
    {
      "constant": false,
      "inputs": [
        {
          "name": "user",
          "type": "address"
        }
      ],
      "name": "timeLeft",
      "outputs": [
        {
          "name": "",
          "type": "uint256"
        }
      ],
      "payable": false,
      "stateMutability": "nonpayable",
      "type": "function"
    },
    {
      "constant": false,
      "inputs": [
        {
          "name": "check",
          "type": "address"
        }
      ],
      "name": "getBalance",
      "outputs": [
        {
          "name": "",
          "type": "uint256"
        }
      ],
      "payable": false,
      "stateMutability": "nonpayable",
      "type": "function"
    },
    {
      "constant": false,
      "inputs": [],
      "name": "withdrawEther",
      "outputs": [
        {
          "name": "",
          "type": "uint256"
        }
      ],
      "payable": false,
      "stateMutability": "nonpayable",
      "type": "function"
    },
    {
      "constant": false,
      "inputs": [],
      "name": "claimReward",
      "outputs": [
        {
          "name": "reward",
          "type": "uint256"
        },
        {
          "name": "compoundTimes",
          "type": "uint256"
        }
      ],
      "payable": false,
      "stateMutability": "nonpayable",
      "type": "function"
    },
    {
      "constant": false,
      "inputs": [],
      "name": "getFees",
      "outputs": [
        {
          "name": "",
          "type": "uint256"
        }
      ],
      "payable": false,
      "stateMutability": "nonpayable",
      "type": "function"
    }
  ],
  "bytecode": "0x60806040526005600055600f60015534801561001a57600080fd5b5061c350600581905550610a10806100336000396000f300608060405260043610610099576000357c0100000000000000000000000000000000000000000000000000000000900463ffffffff16806326839f171461009b578063405c649c146100c857806346c648731461011f578063670e75f8146101765780637362377b146101cd578063b88a802f146101f8578063db8d55f11461022a578063e2125cd414610255578063f8b2cb4f146102ac575b005b3480156100a757600080fd5b506100c660048036038101908080359060200190929190505050610303565b005b3480156100d457600080fd5b50610109600480360381019080803573ffffffffffffffffffffffffffffffffffffffff16906020019092919050505061046b565b6040518082815260200191505060405180910390f35b34801561012b57600080fd5b50610160600480360381019080803573ffffffffffffffffffffffffffffffffffffffff1690602001909291905050506104d7565b6040518082815260200191505060405180910390f35b34801561018257600080fd5b506101b7600480360381019080803573ffffffffffffffffffffffffffffffffffffffff1690602001909291905050506104ef565b6040518082815260200191505060405180910390f35b3480156101d957600080fd5b506101e2610507565b6040518082815260200191505060405180910390f35b34801561020457600080fd5b5061020d61078f565b604051808381526020018281526020019250505060405180910390f35b34801561023657600080fd5b5061023f610979565b6040518082815260200191505060405180910390f35b34801561026157600080fd5b50610296600480360381019080803573ffffffffffffffffffffffffffffffffffffffff169060200190929190505050610983565b6040518082815260200191505060405180910390f35b3480156102b857600080fd5b506102ed600480360381019080803573ffffffffffffffffffffffffffffffffffffffff16906020019092919050505061099b565b6040518082815260200191505060405180910390f35b6000600260003373ffffffffffffffffffffffffffffffffffffffff1673ffffffffffffffffffffffffffffffffffffffff1681526020019081526020016000205414801561039157506000600360003373ffffffffffffffffffffffffffffffffffffffff1673ffffffffffffffffffffffffffffffffffffffff16815260200190815260200160002054145b151561039c57600080fd5b80600260003373ffffffffffffffffffffffffffffffffffffffff1673ffffffffffffffffffffffffffffffffffffffff1681526020019081526020016000208190555042600360003373ffffffffffffffffffffffffffffffffffffffff1673ffffffffffffffffffffffffffffffffffffffff1681526020019081526020016000208190555042600460003373ffffffffffffffffffffffffffffffffffffffff1673ffffffffffffffffffffffffffffffffffffffff1681526020019081526020016000208190555050565b6000806000600360008573ffffffffffffffffffffffffffffffffffffffff1673ffffffffffffffffffffffffffffffffffffffff168152602001908152602001600020546000540191504282039050818111156104cc57600092506104d0565b8092505b5050919050565b60036020528060005260406000206000915090505481565b60026020528060005260406000206000915090505481565b600080600080600080600260003373ffffffffffffffffffffffffffffffffffffffff1673ffffffffffffffffffffffffffffffffffffffff1681526020019081526020016000205411151561055957fe5b600260003373ffffffffffffffffffffffffffffffffffffffff1673ffffffffffffffffffffffffffffffffffffffff1681526020019081526020016000205493506105a43361046b565b92506000600260003373ffffffffffffffffffffffffffffffffffffffff1673ffffffffffffffffffffffffffffffffffffffff168152602001908152602001600020819055506000600360003373ffffffffffffffffffffffffffffffffffffffff1673ffffffffffffffffffffffffffffffffffffffff168152602001908152602001600020819055506000600460003373ffffffffffffffffffffffffffffffffffffffff1673ffffffffffffffffffffffffffffffffffffffff1681526020019081526020016000208190555060008314156106f3573373ffffffffffffffffffffffffffffffffffffffff166108fc859081150290604051600060405180830381858888f19350505050507f4e70a604b23a8edee2b1d0a656e9b9c00b73ad8bb1afc2c59381ee9f69197de7846040518082815260200191505060405180910390a1839450610788565b6005848115156106ff57fe5b0491508184039050816005600082825401925050819055503373ffffffffffffffffffffffffffffffffffffffff166108fc829081150290604051600060405180830381858888f19350505050507f4e70a604b23a8edee2b1d0a656e9b9c00b73ad8bb1afc2c59381ee9f69197de7816040518082815260200191505060405180910390a18094505b5050505090565b6000806000806000806000600460003373ffffffffffffffffffffffffffffffffffffffff1673ffffffffffffffffffffffffffffffffffffffff1681526020019081526020016000205442039450600154858115156107eb57fe5b0493506000841115156107fd57600080fd5b60646069600260003373ffffffffffffffffffffffffffffffffffffffff1673ffffffffffffffffffffffffffffffffffffffff168152602001908152602001600020540281151561084b57fe5b049250600191505b8382101561087a5760646069840281151561086a57fe5b0492508180600101925050610853565b600260003373ffffffffffffffffffffffffffffffffffffffff1673ffffffffffffffffffffffffffffffffffffffff168152602001908152602001600020548303905080600554101515156108cf57600080fd5b42600460003373ffffffffffffffffffffffffffffffffffffffff1673ffffffffffffffffffffffffffffffffffffffff168152602001908152602001600020819055508060000360058190555080600260003373ffffffffffffffffffffffffffffffffffffffff1673ffffffffffffffffffffffffffffffffffffffff1681526020019081526020016000206000828254019250508190555080849650965050505050509091565b6000600554905090565b60046020528060005260406000206000915090505481565b6000600260008373ffffffffffffffffffffffffffffffffffffffff1673ffffffffffffffffffffffffffffffffffffffff1681526020019081526020016000205490509190505600a165627a7a72305820bf8da095506f26b6bf64faeeee0807559d62bf62810b2152eabef7128eed8ca60029",
  "source": "pragma solidity ^0.4.23;\n\ncontract Hodl {\n    \n    \n    uint minimumWaitTime = 5 seconds;\n    uint interestPeriod = 15 seconds;\n    \n    event Withdrawal(\n        uint amount    \n    );\n    \n    event timeCheck (\n        uint time,\n        uint time2 \n    );\n\n    \n    mapping (address => uint) public storedAmounts;\n    mapping (address => uint) public depositTime;\n    mapping (address => uint) public rewardClaimTime;\n    uint fees;\n    \n    function Hodl() {\n        fees = 50000;\n    }\n    \n    //cant deposit if balance is > 0\n    function depositEther(uint amount) {\n        require(storedAmounts[msg.sender] == 0 && depositTime[msg.sender] == 0);\n        storedAmounts[msg.sender] = amount;\n        depositTime[msg.sender] = now;\n        rewardClaimTime[msg.sender] = now;\n    }\n\n    function timeLeft(address user) public returns (uint) {\n        uint timeTillFree = minimumWaitTime + depositTime[user];\n        uint timeLeft = timeTillFree - now; \n        //timeCheck(timeLeft,timeTillFree);\n        if(timeLeft > timeTillFree) {\n            return 0;\n        }\n        return timeLeft;\n    }\n    \n    function getBalance(address check) returns (uint) {\n        return storedAmounts[check];\n    }\n\n\n    function withdrawEther() returns (uint) {\n        assert(storedAmounts[msg.sender] > 0);\n        uint amountToSend = storedAmounts[msg.sender];\n        uint timeTillNoPenalty = timeLeft(msg.sender);\n        storedAmounts[msg.sender] = 0; \n        depositTime[msg.sender] = 0;\n        rewardClaimTime[msg.sender] = 0;\n        if(timeTillNoPenalty == 0) {\n            msg.sender.send(amountToSend);\n            Withdrawal(amountToSend);\n            return amountToSend;\n        } else {\n            //20% fee if withdrawing early\n            uint fee = amountToSend/5;\n            uint returnAmount = amountToSend - fee;\n            fees+= fee;\n            msg.sender.send(returnAmount);\n            Withdrawal(returnAmount);\n            return returnAmount;\n        }\n    }\n\n    //For ever hour you hold, you gain 5% interest compounded if fees contain enough ether.\n    //Contract must contain enough fees to pay built up compounded interest.\n    function claimReward() returns (uint reward, uint compoundTimes){\n        //Calculate how many times to compound.\n        uint timeSinceLastClaim = now - rewardClaimTime[msg.sender];\n        uint compoundAmount = timeSinceLastClaim / interestPeriod;\n        \n        //Must reach atleast one hour\n        require(compoundAmount > 0);\n        \n        //Calculate claim amount\n        uint tempBalance = storedAmounts[msg.sender]*105/100;\n        for(uint i = 1; i < compoundAmount; i++) {\n            tempBalance = tempBalance*105/100;\n        }\n        uint rewardAmount = tempBalance - storedAmounts[msg.sender];\n        \n        //Must have enough money in fees\n        require(fees >= rewardAmount);\n        rewardClaimTime[msg.sender] = now;\n        fees =- rewardAmount;\n        storedAmounts[msg.sender] += rewardAmount;\n        \n        return (rewardAmount,compoundAmount);\n    }\n    \n    function getFees() returns (uint) {\n        return fees;\n    }\n    \n    function() payable {\n        \n    }\n    \n    \n}",
  "sourcePath": "/home/user/Desktop/Digix Code Test/Smart Contract Test/contracts/Hodl.sol",
  "compiler": {
    "name": "solc",
    "version": "0.4.24+commit.e67f0147.Emscripten.clang"
  },
  "schemaVersion": "2.0.1",
  "updatedAt": "2018-09-28T03:58:35.618Z"
}